:1000000000800020BD0100007126000029260000AC
:1000100029260000292600002926000029260000A4
:10002000292600002926000029260000712600004C
:100030007126000029260000C12A0000C52B0000FF
:100040007126000071260000712600007126000054
:100050007126000071260000712600007126000044
:100060007126000071260000712600007126000034
:100070007126000071260000712600007126000024
:100080007126000071260000712600007126000014
:100090007126000071260000712600007126000004
:1000A000D50B0000E10B0000712600007126000056
:1000B00071260000712600007126000071260000E4
:1000C00071260000712600007126000071260000D4
:1000D00071260000712600007126000071260000C4
:1000E00071260000712600007126000071260000B4
:1000F000712600007D170000712600005D270000BA
:100100007126000089280000712600007126000079
:100110007126000071260000712600007126000083
:100120007126000071260000712600007126000073
:100130007126000071260000712600007126000063
:10014000F10B0000712600007126000071260000EE
:100150007126000071260000712600007126000043
:100160007126000091190000712600007126000020
:100170007126000071260000712600007126000023
:100180007126000071260000712600007126000013
:100190007126000071260000712600007126000003
:1001A00071260000712600007126000071260000F3
:1001B000712600007126000071260000564B4CF29B
:1001C000205210B51A804DF628121A8000BF00BFC9
:1001D00002F052FA514B4FF010621A60504A9A6086
:1001E000504ADA60504A136813F4807304D14F49BF
:1001F0000B604FF4A85313604D4B1A78110703D5C9
:100200001A7842F008021A704A4B4B492A221A7097
:100210004A4A4B4B8B4204D252F8040F43F8040B6A
:10022000F8E7484B484900228B4202D243F8042B9E
:10023000FAE74649464A002352F8230041F82300D2
:1002400001336F2BF8D1434B434A802103F8011B44
:100250009342FBD1414B3D4A1A60414B8A221A70AE
:10026000A3F5805324225A70A0221A709A7992071B
:10027000FCD59A79D406FCD43A4A937903F00C035E
:10028000082B384BF9D103221A7140225A719A79FE
:100290009006FCD5334A9179324B4906FBD5324A58
:1002A000324911600221516020221A709A7902F0BD
:1002B0000C020C2AFAD12E4B2E4A1A602E4B2F4AD2
:1002C0001A6000225A60072243F8042C2C4AC3F813
:1002D0000C2D62B600F0C0FE144B1B68DA0705D582
:1002E000284800F04DFE284B284A1A60284B1B78FE
:1002F0005B0609D5244C254B22689A4204D121483B
:1003000000F03EFE0023236002F070FC02F0BAF918
:1003100002F0C4F8FEE700BF0E2005403080044024
:10032000823F04000100002B10D0034014D0034092
:1003300002D0074000E00740C492FF1FB838000019
:100340002087FF1FC492FF1FE495FF1F0082FF1F3D
:100350000000000000E400E05FE400E008ED00E0E1
:100360000050064000400640448004400000030165
:1003700004800440C010050014E000E0FF76010096
:1003800000002020AADC1F5C1CE00340A5C3945A97
:1003900000F00740FFFFFFFFFFFFFFFFFFFFFFFF32
:1003A000FFFFFFFFFFFFFFFFFFFFFFFFFFFFFFFF5D
:1003B000FFFFFFFFFFFFFFFFFFFFFFFFFFFFFFFF4D
:1003C000FFFFFFFFFFFFFFFFFFFFFFFFFFFFFFFF3D
:1003D000FFFFFFFFFFFFFFFFFFFFFFFFFFFFFFFF2D
:1003E000FFFFFFFFFFFFFFFFFFFFFFFFFFFFFFFF1D
:1003F000FFFFFFFFFFFFFFFFFFFFFFFFFFFFFFFF0D
:10040000FFFFFFFFFFFFFFFFFFFFFFFFDEF9FFFF23
:1004100010B5054C237833B9044B13B10448AFF33E
:1004200000800123237010BDC492FF1F0000000054
:10043000BC380000084B10B51BB108490848AFF3A1
:1004400000800848036803B910BD074B002BFBD0A0
:10045000BDE81040184700BF00000000C892FF1F11
:10046000BC380000C492FF1F00000000064B1A6851
:10047000012A05D0012211460D201A6000F092BD1C
:10048000024B1A60704700BFE092FF1FE492FF1F0B
:10049000F8B540F2836000F0A1FE404800F088F912
:1004A00001210D2000F084FD3D4B1B6803EB43034D
:1004B000DB00B3F5803F39D3B3F5003F1AD3B3F572
:1004C000802F42D3B3F5002F37D3B3F5801F44D329
:1004D000B3F5001F51D3B3F5800F46D3B3F5000F2A
:1004E00053D33049304A07204FF6FF73087013800A
:1004F0002F2006E02C482B4A5B0801210380117055
:1005000029202A4A2A4F11682A4D2B4C2B4E01F0E4
:1005100040010143002010603B60116013682E60B1
:10052000012143F0400313602160F8BD1D491E4ABC
:100530000020087013802820E3E71B48194ADB08D5
:100540000321038011702B20DBE71748154A9B0815
:100550000221038011702A20D3E71348114A1B0996
:100560000421038011702C20CBE70F480D4A9B0912
:100570000621038011702E20C3E70B48094A5B094E
:100580000521038011702D20BBE70748054ADB09D0
:100590000721038011702F20B3E700BF0888FF1FD9
:1005A000FC87FF1FEC92FF1FEA92FF1F00800B40A9
:1005B00008800B40E088FF1F08E100E06D040000A8
:1005C00008B50849084A00230B70136001F036F89B
:1005D0000648352100F0CEFF0548BDE8084001F08F
:1005E0004DBF00BF0488FF1FE492FF1F3436000098
:1005F000CC89FF1FF0B5144A144B126883B00E4625
:1006000001920446CAB212481978019D012300F0F4
:10061000E9F9002E14DD0E4AA1192046164692F87B
:10062000383092F83940F7189C4203F101038ABF31
:1006300086F83830FF233B7E00F8013B8842EED13C
:10064000284603B0F0BD00BFF092FF1F0088FF1FD7
:100650000888FF1F70B506460D4600F0EFFF741EB8
:10066000033614F8010F00F07BFFB442F9D16C1E81
:10067000033514F8010F00F073FFAC42F9D10121EA
:10068000054800F077FF0023044A19460D20BDE815
:100690007040136000F086BC6C360000E092FF1FD3
:1006A00030B5144B1B68012B83B01FD0124B1B6855
:1006B000012B01D003B030BD104B1B78002BF9D0BB
:1006C00068460421FFF796FF69460346020E050AB5
:1006D000040C01A88DF804308DF805508DF8064003
:1006E0008DF80720FFF7B6FF03B030BDFFF768FFB6
:1006F000E0E700BFE492FF1FE092FF1F0488FF1FA6
:100700000020704790F8392090F83800101A704790
:1007100090F8383090F839209A4205D95A1C034491
:1007200080F83820187E70474FF0FF30704700BFC8
:1007300090F8383090F839209A4286BF1B18187EFE
:100740004FF0FF30704700BF704700BF38B5054617
:10075000B0F85E0090B195F85D301446C3F1210207
:1007600094420CD805F13B001844224600F04EFAA2
:1007700095F85D30234485F85D30204638BD012072
:1007800014462871EEE700BFB0F85E306BB190F808
:100790005D30202B07D8C218013380F85D3001206E
:1007A00082F83B107047012303710020704700BF9F
:1007B0000023426980F8383080F8393080F85C30A6
:1007C00080F85D3080F85E3080F85F3006CA30B463
:1007D0000D68046943662A4383660A60A370426910
:1007E00090F861301649146813441D7A5B7B01EB65
:1007F000C5051B026D6803F4E06343F064032B60DE
:1008000090F8623013449D7CDB7D01EBC5011B0237
:10081000496803F4E06343F064030B6021685368A4
:10082000194205D0036927225A70036904229A717C
:10083000036920225A71036980229A7030BC704784
:10084000D436000010B50269D378DBB2D90604466D
:100850003DD510215806D17038D503F0040303F0BC
:10086000FF02002B51D03D49626E00230B7084F8CB
:100870005D30002A5BD0904794F85D30002B56D055
:100880002369D0229A70236994F83B201A71236956
:10089000012284F85C200222DA7010BD304B84F80B
:1008A00060009C424AD02F4B9C4252D094F83910A1
:1008B00013791F29DBB207D82848007820B16018C7
:1008C000013184F8391003760223D37010BD590624
:1008D000C3D4917801F0100101F0FF000029DDD0B0
:1008E00013F001031ED194F85C1094F85D00884267
:1008F00081BF4B1C091984F85C3091F83B301371AF
:100900002369D0229A702269DEE7236984F83920AE
:10091000C0229A702369114A1979012111700222AB
:10092000DA7010BDC023937022691379CCE70122DD
:10093000002384F85D2084F83B30A1E7626994F8D5
:100940006130094913440322187A00F059FA2269E8
:10095000ACE7626994F861300449F3E7E892FF1F5D
:100960000888FF1F7488FF1FCD090000D909000007
:100970000369DB7803F0200373B190F86030013332
:10098000DBB2012B80F860301AD9426990F86130EF
:100990001344187A00F0B0BA70B5426903F0FF054D
:1009A00090F8613013440446187A00F0A5FAA36E5B
:1009B0005BB184F8385094F83900BDE870401847AE
:1009C00090F85F30002BE0D0704770BD0148FFF712
:1009D000CFBF00BF0888FF1F0148FFF7C9BF00BF96
:1009E0007488FF1F2DE9F041064612253469002066
:1009F00086F8380086F83900E5703769BC7804F06D
:100A000020048AB0002C3CD0B420714DB870286806
:100A10000290DDF808E0376906E02C680394039C37
:100A2000CEEB0404042C47D8FC7804F0200404F036
:100A3000FF00002CF1D0490041F00101C9B2397129
:100A400029680491049F346905E029680591059996
:100A5000C91B05293FD8E17801F0020101F0FF0030
:100A60000029F2D00227E7703169C87810F0110030
:100A700038D1002A3AD1002B0CBFA02380238B70E1
:100A80001EE0534D04F0FF002C680094DDF800C018
:100A900006E02C680194019CCCEB04040F2C12D8C6
:100AA000FC7804F0200404F0FF0E002CF1D1B020FB
:100AB00086F85FE0B870AAE7B870336980229A7050
:100AC0000AB0BDE8F0810023BB70336980229A70C0
:100AD0000AB0BDE8F081A070336980229A700AB034
:100AE000BDE8F08180238B700020E9E7012A58D00F
:100AF000A0248C703469217986464FF0A80C2968AF
:100B00000691069805E0296807910799091A0529B1
:100B10004DD8E17801F0020101F0FF080029F2D080
:100B2000013AD2B2E770012A04BF316981F802C0EC
:100B3000BEF11F0F346943D806EB0E012079087609
:100B40000EF1010E5FFA8EFE2146012AD7D12A68E6
:100B50000892089C05E02A680992099A121B052A46
:100B600031D8CA7802F0020202F0FF00002AF2D067
:100B70000222CA703269B021BEF11F0F917024D8D1
:100B8000316906EB0E02097911760EF1010E5FFA5A
:100B90008EFE13B1336980229A7086F839E0704670
:100BA0008EE7A8228A70316986460A79CFE784F8F1
:100BB0000280336980229A70704686F839E07FE7B8
:100BC00021792146C1E78870F3E732691279E0E7BD
:100BD000F092FF1F0148FFF735BE00BF0888FF1FD6
:100BE0000148FFF72FBE00BF7488FF1F704700BF8A
:100BF000044A1368190644BF03F07F031360024BD5
:100C00001B68184700800B40E088FF1F844641EABC
:100C1000000313F003036DD1403A41D351F8043B74
:100C200040F8043B51F8043B40F8043B51F8043BC6
:100C300040F8043B51F8043B40F8043B51F8043BB6
:100C400040F8043B51F8043B40F8043B51F8043BA6
:100C500040F8043B51F8043B40F8043B51F8043B96
:100C600040F8043B51F8043B40F8043B51F8043B86
:100C700040F8043B51F8043B40F8043B51F8043B76
:100C800040F8043B51F8043B40F8043B51F8043B66
:100C900040F8043B51F8043B40F8043B403ABDD2D5
:100CA000303211D351F8043B40F8043B51F8043B77
:100CB00040F8043B51F8043B40F8043B51F8043B36
:100CC00040F8043B103AEDD20C3205D351F8043B06
:100CD00040F8043B043AF9D2043208D0D2071CBFD2
:100CE00011F8013B00F8013B01D30B8803806046FB
:100CF000704700BF082A13D38B078DD010F0030371
:100D00008AD0C3F10403D21ADB071CBF11F8013BE0
:100D100000F8013B80D331F8023B20F8023B7BE72F
:100D2000043AD9D3013A11F8013B00F8013BF9D25A
:100D30000B7803704B7843708B78837060467047F4
:100D4000704700BF10B40F4B53F8302092F8804228
:100D50002CB1012369B182F8803010BC704703EBDD
:100D6000C0035B681A6841B922F002021A6010BC25
:100D7000704782F8003110BC704742F003021A60DD
:100D800010BC7047D43600001C4A02EBC003012996
:100D90005B6811D004291BD052F83000002280F883
:100DA000802229B1022920D0032922D01A6070475D
:100DB0004FF480721A60704752F830004FF4A272FC
:100DC00080F880121A601A6822F020021A607047B8
:100DD00052F830104FF4A272012081F880021A609C
:100DE0001A6842F020021A60704740F203121A603B
:100DF00070474FF481721A60704700BFD43600000C
:100E0000212817D8F8B5042A13D8DFE802F0494C96
:100E10004F1446002C4872B6236823F4702343F025
:100E20008072C4F384011643236040F82150266089
:100E300062B6F8BD70474FF41026244B03EBC00395
:100E40000D465C68216811F4E06134D0204B214AE2
:100E50002149C3F89C2104F140422048C3F8A41161
:100E6000A2F592211E4FC3F8A0017C291D48C3F8AA
:100E7000A871C3F8AC01CDD9A2F594237C2B18D965
:100E8000A2F596237C2B19D9A2F598237C2B17D990
:100E9000A2F59A227C2A15D9F8BD4FF43026CCE76A
:100EA0004FF40026C9E74FF44026C6E74FF420264A
:100EB000C3E70D48AFE7FFF767FFC7E70B48AAE7AF
:100EC0000B48A8E70B48A6E7E488FF1FD4360000CC
:100ED0000082FF1FD187FF1F7987FF1FA587FF1F94
:100EE0004D87FF1F2187FF1F1C89FF1F6C89FF1F74
:100EF0009C89FF1FBC89FF1F1A4B03EBC00010B475
:100F0000426802F14043A3F592217C2905D9A3F55B
:100F100094217C2913D8144900E0144972B613684F
:100F2000134C23F08773C2F3840023F4803343F01F
:100F30008073136041F8204062B610BC7047A3F57F
:100F400096217C2909D9A3F598217C2907D9A3F5F5
:100F50009A237C2BF1D80749E0E70749DEE70749E8
:100F6000DCE700BFD43600001C89FF1FE488FF1FA8
:100F7000410D0000BC89FF1F6C89FF1F9C89FF1F6A
:100F800030B4054B054D064C002210211A602A6032
:100F90002060196030BC704714D0034004D0034077
:100FA00000D00340212801D8FFF7CCBE704700BF16
:100FB000212801D8FFF7E8BE704700BF2DE9F843AC
:100FC000054672B6204F214B214A1B683C681268C7
:100FD00062B6520102D5322B88BF013495B3C3F5F6
:100FE000BB331C4EDFF86490DFF86480FF334FF4AE
:100FF0007A72A6FB031302FB04F404EB931472B69B
:10100000D9F800103A68D8F800E062B6C1F5BB33F1
:10101000FF33A6FB03031EF0806FC4EB93134FF462
:101020007A7002D0322988BF013200FB0233B3F557
:101030007A7F04D3013D05D004F57A74DFE701F02F
:1010400035FADCE7BDE8F883F092FF1F18E000E016
:1010500004ED00E0ABAAAAAAF8B52D4B2D49DFF8A4
:10106000D0E0DFF8D0C02C4E2C4D2D4C2D4A2E4F09
:101070004FF4000018604FF0807018604FF000705F
:1010800018604FF0806018604FF00060186000201A
:10109000086028234BF6FF71CCF80010CEF8003022
:1010A000336013602B6023603B60B362936209225C
:1010B00045F8242CC4F8D80F05F57F65C7F8D41F70
:1010C00007F5FF2707F5FA67C6F8F83F2B6006F526
:1010D000FF26C4F8D42F05F5FD2504F5FF2438605C
:1010E00006F2F4761148316005F5FF6504F5FD64FC
:1010F0002B602360026001F027FA3220FFF75EFFC9
:1011000001F072F84FF4AF70BDE8F840FFF756BF3A
:1011100008E100E004800340148003402480034081
:101120002C8003401C8003403480034000800B402F
:101130000C800340088003402DE9F84F214B1B68C9
:1011400007460BB101221A70DFF888901E4D99F8FE
:101150000040DFF884801D4E01343F2C8ABF4FF0E1
:10116000000A5FFA84FA5446AB462B78A34216D1A4
:1011700001F0A0FA40281FDC33791B06F5D59BF857
:10118000003001333F2B86BF00221346DAB218F835
:101190000330DBB2F3712A702B78A342E8D00C49FC
:1011A0000A4BFFB208F804700120BC22087089F8CD
:1011B00000A0DA70BDE8F88FFF28D6DD01F076F9DF
:1011C000D3E700BF8493FF1F8193FF1F00A0064059
:1011D0008093FF1F8893FF1FFC92FF1F274A284917
:1011E0001368F0B543F4806313600A78254F264EE8
:1011F000264D274C274900233B7033702B702370FA
:101200000B70002A35D0152A26D0234B1B78012BD2
:101210002AD0052B03D1214B4FF451721A60204B79
:10122000204C2149C0F34436C0F347151E7000F02E
:101230001F005D7004224FF0020E88273C264025D7
:1012400098729A704FF4005083F813E05A751F7427
:10125000DE7025700860F0BD144B40F213321A6046
:101260000D4B1B78012BD4D1114B4FF451721A60E6
:10127000D5E7104B40F213321A60C6E734800440C1
:101280003C93FF1FF892FF1FF992FF1F8893FF1FE7
:101290008193FF1F8093FF1FC489FF1F1CC0044060
:1012A00000A006402DE400E004E100E018C0044086
:1012B00044A0044040A00440144B14499B7803F020
:1012C000EC0200F003031343420700F00F0248BF93
:1012D00043F01003042A8B7013D00C4B0B4A5B793C
:1012E000C10603F0EF0348BF43F010035371937935
:1012F000820603F0EF03054A48BF43F010039371E1
:1013000070478B7943F040038B71E6E700A00640FD
:10131000214B1B685B053ED510B5204C237823B1CB
:1013200001F0C4F82378002BFAD11D481D4A1E4B4A
:101330004FF4005400210460D1701B78E3B1152BE9
:1013400003D11A4B40F203121A60194B1B7803F0B9
:101350007F03012B1AD0052B03D1164B40F2031249
:101360001A60154B154816491A68002303700B7054
:101370000AB10123137010BD124B40F203121A6020
:101380000B4B1B7803F07F03012BE4D10E4B40F293
:1013900003121A60E5E77047348004408093FF1F12
:1013A00084E100E000A006403C93FF1F18C0044009
:1013B000C489FF1F1CC00440F492FF1FF892FF1F56
:1013C000F992FF1F40A0044044A004400A4A38B5E7
:1013D0000546137803F0FF04002BFAD101212846BB
:1013E000FFF7E6FD21462846FFF7DCFD034A044BE4
:1013F00052F835201A6038BD8093FF1FD4360000A4
:101400008493FF1F09B140F08000174A1378984277
:1014100016D010B4154C246864050FD503F07F0373
:10142000012B1CD0052B11D0002900F07F0114BF27
:101430006023442301290DD0052902D0107010BC6F
:1014400070470B4943F440730B60F7E7084B0024E7
:101450001C60E9E7074943F440730B60EEE7054B76
:1014600000241C60E0E700BFC489FF1F34800440F3
:101470001CC0044044A00440104B1A7882420AD099
:101480000F490968490505D5AAB1152A09D068B1DF
:10149000152801D0187070470A4A40F213311160C4
:1014A000F8E7084A002111600028F1D1064A40F20D
:1014B00013311160EEE704490A60E8E73C93FF1F2F
:1014C0003480044018C0044040A004400D4B1B6809
:1014D00013F4806305D0212805D90B4B0020186038
:1014E000704718467047094B10B5074C53F8303019
:1014F00023600121FFF75CFD236800221A700120A0
:1015000010BD00BF34800440F492FF1FD4360000A9
:101510000F4B1B6813F4806308D0122808D01428DE
:1015200011D00C4A537B03F0FE0353730020704725
:10153000094B40F202321A60064A537B43F0010322
:10154000537301207047054B40F202321A60F3E7F3
:101550003480044000A006400CA0044014C00440A5
:10156000034B1B685B0501D5FFF7E6BD704700BF65
:10157000348004402DE9F84F294B1B685A0548D5A3
:10158000284B1B6805460BB101221A7005EB010AB6
:10159000554540D2DFF89C80234CDFF89C90234FC8
:1015A0000AE015F8012B09F80B20214A0123AA456E
:1015B000137088F800602ED098F80030227803F17C
:1015C000010BBBF13F0F86BF0026B3465FFA8BF6D7
:1015D0009345E6D1BC22FA7005E03A7913060BD4A4
:1015E00022789345DDD101F065F84028F5DDFF282C
:1015F000F6DD00F05BFFF3E7227801323F2A86BF79
:1016000000210A46D1B219F80220D2B2FA71217033
:10161000E6E7BDE8F88F054BBC22DA70BDE8F88F2D
:10162000348004408493FF1F8193FF1F00A0064075
:101630008093FF1F8893FF1FFC92FF1F10B5044C7F
:10164000237823B100F032FF2378002BFAD110BDAC
:101650008093FF1F064A074B1B781078DBB2C0B29D
:1016600083422CBF3F3000F1FF30C01A704700BFEB
:101670008193FF1F8893FF1F054A064B10781B7844
:10168000C0B2DBB2984238BF4030C01A704700BFCA
:10169000F892FF1FF992FF1F30B4154B154C1A78C2
:1016A0002378D2B2DBB29A421ED001333F2B0ED93F
:1016B0001149124B087819680023C0B2237021B178
:1016C000D31A1A2B01DC00230B7030BC70470A4878
:1016D0000A49C05C0968DDB2C0B225700029F4D0A7
:1016E0009A4238BF4032EBE74FF0FF30EDE700BFE2
:1016F000F892FF1FF992FF1F4093FF1FF492FF1F04
:10170000084A094B12781B78DBB29A4207D00133A2
:10171000402B28BF0023054AD05CC0B270474FF071
:10172000FF307047F892FF1FF992FF1F4093FF1F91
:101730000D4B1B685B0516D530B40C4B0C4CDA789E
:101740000C480D4902F0CB024025DA705D74DA785E
:1017500042F03402DA7023780268DBB20B700AB10F
:101760000023137030BC70473480044000A0064052
:10177000F992FF1FF492FF1FF892FF1FF0B4384B4D
:101780001A7912F0300F2CD072B6997D01F0FF0259
:1017900000293DD062B6334F334938780D78334E47
:1017A0001C46C0B2EDB2431C402BE17928BF002398
:1017B000AB4202F1FF32C9B21CBFF154184612F01D
:1017C000FF02F0D12A4B1B68C2B23A704BB1A8425B
:1017D00036BFC5F14005401B40192728C4BF012270
:1017E0001A701F49CA78D2B2150616D452060DD502
:1017F0001B4B1B795B0609D51E4B1F491B6800223A
:101800000A7003B11A70164B3C22DA70F0BC7047B4
:101810004022D9795A7462B6E3E70B791C06E5D504
:10182000164B174E1C783378E4B2DBB29C420ED0D4
:10183000144D01E0A3420AD00133402B28BF0023FE
:101840000879E85CC0B2C871087D0728F2D9DBB21C
:10185000034933700B79180644BF7C23CB70C5E76E
:1018600000A00640F892FF1FF992FF1F4093FF1F50
:10187000F492FF1F8493FF1F8093FF1F8893FF1F25
:101880008193FF1FFC92FF1FF0B472B61A491B4EE2
:10189000012311F8014B194F9A00240742F001056A
:1018A00005D556F8324064B156F83520BAB1013347
:1018B000052BEED162B6124B00221A70F0BC00F07C
:1018C0000FBD0F4C0F4D217847F8325007EB4313F3
:1018D00008304A1E5860227062B6F0BC7047084952
:1018E000094B0A7847F8353007EBC5030830013A51
:1018F00058600A7062B6F0E7483800000080FF1FA9
:101900006194FF1F88004000C8004000431E032B65
:101910001DD81B4A400140F0100030B4104472B68C
:10192000184CE25C032A1BD8DFE802F002121517FC
:1019300003220D88E25410F0080F14BFC823882337
:1019400043EA054308310360416062B630BC70472A
:1019500008300222EDE70522EBE708300422E8E731
:10196000094A52F8230038B1084A52F8230041606E
:1019700042F8231062B6E9E742F82310034AF7E77A
:101980000080FF1F7094FF1F3894FF1F4894FF1FB3
:101990002DE9F04FDFF804A3DFF804B387B044E08B
:1019A000A94F4FEA930807EBC809013ED9F8042074
:1019B00003F00803F6B2A2F1080003F0FF04002BC5
:1019C00040F0FE8057F838301B0C99B222F8081C02
:1019D000002B00F0EC809D4B22F8064C42F8044CA2
:1019E00053F82620002A00F02B82994D55F8263016
:1019F0005860984C45F8260034F81630194424F8FD
:101A0000161000F04DFC002800F01382924A934B10
:101A100019F0080F00F1080018BF1346C9F80400B8
:101A200047F8383008238AF800309AF80040E4B2CA
:101A300060071AD58A4B1B78A3B18A490A7802F04D
:101A4000FF0322B1013BDBB20B7003B900BE864934
:101A50000A7802F0FF032AB1013BDBB20B70002BC6
:101A600000F0BD8104238AF8003004F0080303F07D
:101A7000FF02002B00F0C8809BF80030DBB21E098B
:101A80008ED19C08704F57F8342007EBC401C2F385
:101A90008302013A49680C2A00F28580DFE802F0EF
:101AA00079798383838383834283838307000868F0
:101AB0006E4B6F4D0193684B4A686E4E47F8343059
:101AC00081B240F28164694B6A6028600022012083
:101AD000A1421A603A61BA61307000F2E380B1F558
:101AE000D06F80F02782B1F5817F00F0E08100F2B5
:101AF000C381802900F03682822940F0DE81A988E6
:101B00005D4B01F07F01042900F2D8815B4C890014
:101B10000B44227062701A78930740F12283207080
:101B2000022023E2514B01931A683AB3544B514EB1
:101B30005449188834780D784028864645F00208C4
:101B400028BF4FF0400E002C84F001043470CEEB1F
:101B500000000CBF8824C82407EBC80680B285F0BB
:101B6000010544EA0E447260188047F83840724418
:101B70000D70002800F0B780019B1A603C4B1A885A
:101B8000B2F5A06F0FD100219A7859703E4B1A70B0
:101B900009E0374A108842F22102904200F0A88002
:101BA0002D4A47F83420394A012313703AE72A4A6C
:101BB0002A4B19F0080F18BF134647F8383031E7A1
:101BC00000F08EFB324A334952F82630002B00F0E9
:101BD0003B8158688C5D42F8260003F10802C9F881
:101BE0000420032C05D8DFE804F02C022926022269
:101BF0008A551A8819F0080F0CBF8823C82343EAB6
:101C0000024347F838300DE7E00700F1EB8021068A
:101C100000F12881A20706D51F4A20491378022027
:101C2000DBB213700870E30602D51C4B10221A7049
:101C300007B0BDE8F08F04228A55DAE705228A55FD
:101C4000D7E703228A55D4E70080FF1FE493FF1FE4
:101C50009093FF1FCC95FF1FC800400088004000F4
:101C60006C94FF1FF593FF1F7494FF1F8C93FF1F4D
:101C70005894FF1FF493FF1FC02007406494FF1F78
:101C8000A093FF1F6094FF1F9820074094200740F7
:101C90003894FF1F7094FF1F882007408020074062
:101CA0009020074042F22104A14200F0948043D8E2
:101CB000B1F5086F00F0A881B1F5106F40F0FD801C
:101CC000B84AB94CA978117004F1800503E00834D2
:101CD000AC4200F09E81236A1906F8D5606A083884
:101CE00000F0FEFAF3E7BEF1400F18BF002243E711
:101CF000AE4ACD1D11F8013B02F8013FA942F9D1CE
:101D0000AB4A1268862A00F01181AA49AA4E0A78C5
:101D1000307882F00105002842F002020D700CBFFD
:101D20008821C82147F8321007EBC20280F0010079
:101D300000213070516033E742F22124A14240F08B
:101D4000FE81DFF8BCC29D4B9D49AC78DCF80050A9
:101D50001D6081460C700020029080468446044637
:101D600094490D7845F0020E07EBCE03B9F1000F50
:101D70005C600CBF8824C82444EA080385F0010491
:101D800047F83E3032700C70DFF81CE28A4BDFF807
:101D90002482002840F09880BCF1400F1BD144F011
:101DA000020407EBC403029FDFF8FCE15F60002A36
:101DB00040F09F80020442F0880207444EF834202D
:101DC00086F800900D703B46402804D100207D4AE3
:101DD000019910800B607C4A01231370E3E600F048
:101DE000B3FA3FE6704B784872491A614FF0020E21
:101DF00080F800E0754F0A70754919609960754E5A
:101E0000754D764C9A610D213970FF213170DFF8E4
:101E1000F4E129702270724D724A8EF800109F27EB
:101E2000012406F8047C5D600470DA6007B0BDE848
:101E3000F08F6D4A47F83800137801331370F1E5DD
:101E400043F82600694DD4E58B5D032B67D801A2CA
:101E500052F823F0251A0000251A0000A91E0000E0
:101E6000A31E000059495C4B80220D2008701A7097
:101E7000A2077FF5D8AECFE640F20232914240F0A1
:101E80005681A98801F07F01042916D86A88A2B971
:101E90004E4C89000C448146217841F002012170AA
:101EA00059E701238B55BDE500238B55BAE5A98879
:101EB00001F07F01042940F24781444B0F221A7040
:101EC000414A012313706EE640287FF668AF44F064
:101ED00002040EEBC401029E4E60AAB1444A83F88C
:101EE00000903346403888F8005040334EF8342094
:101EF0006DE70204029B86F8009042F0C8020D7064
:101F000003444EF834205FE783F80090029B304A88
:101F100088F80050403840334EF8342057E719F025
:101F2000080F0CBF022303238B557BE5314A0F2199
:101F30001170EAE6304A5468002CBED06888B5F8C3
:101F400004E003E00C325468002CB6D013888342BE
:101F5000F8D153887345F5D1000A03280CBF2078C7
:101F6000108903E0254C022022706270EA888242C8
:101F700080F00C810F490D78402A45F0020E9446FE
:101F800007EBCE0028BF4FF0400C04EB0C0344607D
:101F90000293CCEB02004FEA0C484FF001090022FB
:101FA000C824E9E66C94FF1F0080FF1FD395FF1F34
:101FB000D495FF1F6094FF1FF493FF1FDC95FF1F54
:101FC0008094FF1FA093FF1F94200740C02007406C
:101FD0008800400088200740802007409820074064
:101FE000A493FF1FF893FF1F6194FF1F9093FF1F9F
:101FF000C8004000F593FF1F4C3800006494FF1F99
:10200000F092FF1F8C200740684A694C12782270BA
:10201000ACE76849684B694A02916949694C6A4D65
:10202000039405964FF0000988461C461646049511
:10203000206828B1456800F053F92846002DF9D1F1
:1020400000232360049B30681A46002342F829309D
:1020500028B1456800F044F92846002DF9D1002246
:102060003260029A98F800301146002241F8042BA1
:10207000039A0291023B4FF0000122F81910032B42
:1020800007D8DFE803F0340234024FF0010388F888
:10209000003009F10109B9F1040F04F1040406F15B
:1020A000040608F10108C3D1484B059EDFF83091C2
:1020B000DFF8308100211970012518F8013B09F87B
:1020C000043B1A0718D4AC0044F0020244F00304A5
:1020D000002347F8323047F834303D4B994505F13D
:1020E0000105EAD196F8009089F0010233E64FF03D
:1020F000000388F80030CCE700F0D2F8AC0007EB22
:10210000451300F10802002837D05A60314B47F8D8
:10211000343000F0C5F844F0010307EBC30200F1CE
:10212000080100B351602C4A47F83320CCE7B1F5E1
:10213000A06F7FF4C2AE00224FF001090BE642F21D
:1021400021329142F7D0B8E66A88002A7FF4B5AE12
:10215000224C89000C448146217821F00201217033
:10216000F9E5022002E7194B44F001021B7847F819
:102170003200164A01331370A6E7144B134A1B783A
:10218000AC00013347F834001370C2E7402884469E
:1021900028BF4FF0400C04EB0C03CCEB00004FEADF
:1021A0000C48029300224FF00109D9E56C94FF1FFF
:1021B0006494FF1F4894FF1FE493FF1F3894FF1F90
:1021C0007094FF1FCC95FF1F9093FF1F6194FF1F1A
:1021D000D420074088004000C8004000C0200740CD
:1021E000C4200740483800002DE9F843204C00F097
:1021F000B7FB002204F1880023461A605A600833B6
:1022000083424FF00001F8D11A4A1B4F13681B4D4F
:102210001B481C4EDFF87880DFF878C0DFF8789034
:10222000DFF878E043F480231360C4F307233B70A6
:10223000C4F307432B70240EFF2302F528320470E9
:10224000114D88F8003011488CF80030D4323370CA
:10225000012389F8003070268EF800104FF40074C6
:10226000102107F8183C2E7004601170BDE8F88347
:102270000080FF1F348004409C200740B0200740AE
:10228000B42007401020074049E400E008E100E0E6
:102290008020074088200740942007400021074005
:1022A00072B60D480268B2FA82F30B2B10DC4FF0C5
:1022B0000041D94022EA0102026062B6074803EBFE
:1022C000C303DB00C2180021C150104651607047A3
:1022D00062B60020704700BFC889FF1FBC83FF1F84
:1022E0000D4B0E4AC31AA2FB03231B090B2B0CD860
:1022F0000B4A127852B972B60A484FF00041026890
:1023000021FA03F31A43026062B67047064A127854
:10231000002AF0D0FFF7B8BABC83FF1F398EE3382C
:102320006194FF1FC889FF1F6C94FF1F044B054A6F
:102330001B6890881BB11A885B88D31A18447047B1
:102340007C94FF1FCC95FF1F38B50E4B1B7873B9DB
:102350000D4C216861B103F0FF054B880B80042010
:10236000FFF7D4FA256038BD084B01221A7038BD3A
:10237000FFF796FF0028F7D00146BDE8384004205B
:10238000FFF7C4BA7594FF1F7894FF1F7494FF1F62
:102390000368C9B21B6818470368C9B21B681847AD
:1023A0000368C9B21B6818470368C9B21B6818479D
:1023B00008B50846FFF7D4F8012008BD08B508465F
:1023C000FFF7CEF8012008BD38B508460D4600F0ED
:1023D00017FF044601462846FFF7CCF8204638BDD3
:1023E00010B5084614461146FFF7C4F8204610BD44
:1023F000FFF79EB908B50846FFF78AF8003018BF06
:10240000012008BD08B50846FFF760F8003018BF86
:10241000012008BD08461146FEF7F4BF0846FFF745
:102420002BB800BF0846FEF7D1BF00BFFEF770BF54
:102430004B0803F1376000F5D830B0FBF1F0FEF740
:10244000CDBE00BF10B54B0803F13760144600F550
:10245000D830B0FBF1F0FEF7C1FE2046BDE81040D9
:10246000FEF72ABFFFF74CB9FFF716B9FFF704B91B
:10247000FFF7E4B8FFF7EEB8704700BF00B5064AB3
:10248000036812885B6883B001A9ADF804200222BA
:10249000984703B05DF804FB4438000008B5FDF729
:1024A000F7FFFEF7FDF800F001F8FAE738B5224C27
:1024B000237803B138BD01232370FFF737FF70BBCA
:1024C000FFF7DAF840BB00F039F910BB00F0CCF9A7
:1024D000E0B900232370EFF30583002BEAD1EFF37B
:1024E000108172B6154B1868E0B1154C2278CAB944
:1024F00045691D6001232370C5B1AA6101B962B6A7
:1025000000254577836898472570D3E700F064FB82
:10251000DFE700F05FFBD9E7FFF7AEFFD3E700F09E
:102520005DFBCDE70029C5D162B638BD054B1D6006
:102530000029E5D1E3E700BF8194FF1F8C95FF1FC1
:102540009095FF1F8895FF1F30B42948294A2A4BD0
:102550002A4D6024E121047011701B78284C082B4F
:1025600030D00A2B2748284937D00C2B0CBF3522F6
:102570003D2212232A60236002600B60234B244912
:102580001B78244ABBB101230B601360224B234903
:102590001B78234A012B26D9042B0FD9082B1ED9CF
:1025A000102B94BF862387230B6013601D4B0122E1
:1025B0001A7030BC70470B601360E7E784230B6030
:1025C0001360F3E700F58E200F4908300122132332
:1025D0002A60236002600B60D0E73922F7E7852389
:1025E0000B601360E2E780230B601360DEE700BF3F
:1025F0000040074001400740DC89FF1F08B003404E
:102600000CB0034008B00B400CB00B408394FF1F8C
:1026100020B0034020B00B40DD89FF1F24B00340F1
:1026200024B00B408294FF1F08B5104C08E02368CB
:1026300059050DD423681A050FD42368DB0411D47F
:1026400023685803F3D5FFF7A3F923685905F1D59B
:10265000FFF794F823681A05EFD500F07FF8236898
:10266000DB04EDD500F010F9EAE700BF3480044048
:1026700008B5FFF7D9FF00BF014B10221A80704741
:1026800000200540704700BF094908B50B6830B10C
:102690006A461844A2F58052904202D20860184659
:1026A00008BD00F09DFA0C2303604FF0FF3008BD19
:1026B000E089FF1FEFF3138070B9EFF310836BB95C
:1026C000EFF305825AB94FF48070EFF311832BB109
:1026D000984228BF184670474FF0FF3070470F2AC6
:1026E00001D81846F1E7014BD05CEEE7F0E300E0DB
:1026F000F0B44D1E2E46002400E00134B0FBF2F38E
:1027000002FB1300092800F130078ABF3730F8B206
:10271000C0B206F8010F1846002BEED10A1953700B
:102720004CB1107815F8016F28700133E01A83421C
:1027300002F80169F5DB0846F0BC7047054A064B14
:1027400010781B78C0B2DBB2984238BF4030C01A54
:10275000704700BFF494FF1F8994FF1FF0B4384BFB
:102760001A7912F0300F2CD072B6997D01F0FF0269
:1027700000293DD062B6334F334938780D78334E57
:102780001C46C0B2EDB2431C402BE17928BF0023A8
:10279000AB4202F1FF32C9B21CBFF154184612F02D
:1027A000FF02F0D12A4B1B68C2B23A704BB1A8426B
:1027B00036BFC5F14005401B40192728C4BF012280
:1027C0001A701F49CA78D2B2150616D452060DD512
:1027D0001B4B1B795B0609D51E4B1F491B6800224A
:1027E0000A7003B11A70164B3C22DA70F0BC7047C5
:1027F0004022D9795A7462B6E3E70B791C06E5D515
:10280000164B174E1C783378E4B2DBB29C420ED0E4
:10281000144D01E0A3420AD00133282B28BF002326
:102820000879E85CC0B2C871087D0728F2D9DBB22C
:10283000034933700B79180644BF7C23CB70C5E77E
:1028400000B00640F494FF1F8994FF1FB494FF1F4B
:102850008494FF1FF894FF1F8894FF1FFC94FF1FB0
:10286000F594FF1F8C94FF1F054A064B10781B78C8
:10287000C0B2DBB2984238BF4030C01A704700BFC8
:102880000495FF1F0595FF1F30B42B4B1A79940652
:102890001FD52A48DA790378294901333F2B097873
:1028A000C8BF00238B42D2B203D0264CD9B2E25427
:1028B0000170254A116861B1244A1278D2B293425C
:1028C00036BFC2F140029B1A9B18272BC4BF0123BD
:1028D0000B70194AD378DBB2180611D45A060DD5FD
:1028E000154B1B795B0609D5194B1A491B68002249
:1028F0000A7003B11A70104B2C22DA7030BC70478A
:1029000011790906EAD5144910480C780178C9B242
:102910008C420DD04A1C272A84BF00210A460F4D45
:10292000054C98BFD1B2AA5CD2B2E2710170D5E772
:102930006C21D170D2E700BF00C006400495FF1F94
:102940000595FF1F3095FF1F0095FF1F7195FF1F15
:102950007495FF1F7095FF1F7895FF1F0895FF1F47
:1029600070B584B072B6194B194D1A4870224126C1
:102970000F2480211A702E701A4604701970137873
:102980001B06FCD5144B186862B6144B144C9842C5
:1029900098BF00EB800001A998BF40000A22FFF712
:1029A000A7FE01A92046002311F8012B01333AB1FB
:1029B0000A2B20F8022FF7D11623237004B070BD24
:1029C0005B00DBB2237004B070BD00BF00000240AA
:1029D0000700024006000240080002407F9698006F
:1029E000708AFF1F10B4EFF3108272B6437F33B9C1
:1029F000017F012907D003290FD00123437702B9B2
:102A000062B610BC7047124C2168A1B111494361F4
:102A10000B68836108605861EFE70F4C216881B152
:102A20000E4943610B688361086058610C4B4FF09D
:102A300080511960E1E7074B4161816120601860B6
:102A4000DBE7064B4161816120601860EEE700BF63
:102A50008C95FF1F8895FF1F7C95FF1F8095FF1F9A
:102A600004ED00E010B4047F4160022CC26002D08B
:102A700010BCFFF7B7BF836810BC184770B5EFF301
:102A8000108272B60C4C206880B10C4E0025436950
:102A9000236073B19D6102B962B645778368984738
:102AA000EFF3108272B620680028F0D102B962B646
:102AB00070BD3360EFE700BF7C95FF1F8095FF1F5F
:102AC000FFF7DCBF184A30B41468002C27D0036825
:102AD00021688B420ED2CB1A00218460C160236032
:102AE000E06010600223037530BC704711688B42B0
:102AF000144608D3A2685B1A0360002AF6D18260EC
:102B0000C460A060EEE7D268C2608460E060C5681F
:102B1000CB1A0222A8602360027530BC7047846023
:102B2000C4601060DEE700BF8495FF1FF8B5224E39
:102B300034682CB32368002B3AD1204F1D4604E0A3
:102B40003468ECB12368002B32D1A36803B1DD6097
:102B500020693360036825751B68BB4221D1037F60
:102B60004560022BC46020D0FFF73CFF6368002B58
:102B7000E6D023602046FFF7A5FF3468002CE1D1A2
:102B8000EFF3108372B60E4A00211068116003B98A
:102B900062B628B18468FFF795FF20460028F9D176
:102BA000F8BD224600219847E0E783689847DDE7B3
:102BB000013B2360E4E700BF8495FF1F652A000006
:102BC0009495FF1F024A136801331360FFF7AEBFED
:102BD000F092FF1F704700BF704700BF704700BFF3
:102BE000014B1868704700BFB08EFF1F70B50F4EC5
:102BF0000F4D761BB61018BF002405D0013455F8D0
:102C0000043B9847A642F9D10A4E0B4D761B00F0C3
:102C100049FEB61018BF002406D0013455F8043B15
:102C20009847A642F9D170BD70BD00BFB038000012
:102C3000B0380000B8380000B0380000024B014640
:102C4000186800F003B800BFB08EFF1F2DE9F04FE9
:102C500001F10B05162D83B0064640F29F8035F03A
:102C6000070500F1BF80A94200F2BC8000F0A6FA7F
:102C7000B5F5FC7FC0F09C826B0A00F0BA80042B93
:102C800000F28381A80900F1390E4FEA4E03383073
:102C9000C44F07EB8303A3F108015C68A14207D18D
:102CA000ACE0002A80F2AC80E468A14200F0A6808B
:102CB000636823F003035A1B0F2AF2DDB9493C690C
:102CC00001F1080E744500F0B381636823F003033B
:102CD0005A1B0F2A00F39981002AC1F814E0C1F8A9
:102CE00010E080F29E80B3F5007F80F06781DB0802
:102CF00003F1010C01229B1002FA03F34A6851F818
:102D00003C80C4F8088001EBCC091A43A9F1080300
:102D1000E3604A6041F83C40C8F80C40831001244D
:102D20009C40944200F28A80144206D120F00300B5
:102D30006400144200F10400FAD007EBC009CC464D
:102D40008046DCF80C108C4507D173E1002A80F234
:102D50008181C9688C4500F06D814B6823F00303C5
:102D60005A1B0F2AF2DD0C46D1F80CC054F8088F1C
:102D70004B1945F001054D6042F00101C8F80CC047
:102D80003046CCF808807B613B61C3F80CE0C3F8A7
:102D900008E059609A5000F013FA1FE0102921D87A
:102DA00000F00CFA1025062302207E4F07EB830368
:102DB000A3F108025C68944200F045816368E16811
:102DC000A56823F00303234430465A68E96042F0C3
:102DD00001028D605A6000F0F3F90834204603B018
:102DE000BDE8F08F00240C232046336003B0BDE81B
:102DF000F08F80234FF0400E3F2049E770465DE79B
:102E00002344E1685A68A56842F00102E96030464F
:102E10008D605A6000F0D4F90834204603B0BDE854
:102E2000F08F234430465A6842F001025A6000F0A5
:102E3000C7F90834204603B0BDE8F08FBC6863686A
:102E400023F00308A84504D3C5EB08030F2B00F3B8
:102E50008C80554BDFF860911A68D9F80030013347
:102E60002A4404EB080A00F0608102F580520F3218
:102E700022F47F6222F00F0211463046019200F0E8
:102E8000A1F9B0F1FF3F8346019A00F058818245D5
:102E900000F2FC80454B1968DA451144196000F0D6
:102EA0005381D9F80000DFF810E101301BBFCAEBF5
:102EB0000B0A5144CEF800B019601BF0070100F076
:102EC0001781C1F10800C1F58051834408315A448B
:102ED000C2F30B02C2EB010949463046019300F0F0
:102EE00071F9431C019B00F03F81CBEB00024A4487
:102EF00042F001021968C7F808B04944BC42CBF857
:102F000004201960DFF8A49016D0B8F10F0F40F23A
:102F1000FD806268A8F10C0323F00703E01802F0BB
:102F200001024FF0050E1A430F2B6260C0F804E057
:102F3000C0F808E000F21C811D4BBC681A68914281
:102F400088BF19601B4B1A689142626888BF19607C
:102F500022F003029542A2EB050301D80F2B04DCFB
:102F6000304600F02DF9002438E7621943F00103E0
:102F700045F0010565603046BA60536000F020F905
:102F80000834204603B0BDE8F08F142B71D9542BC0
:102F900000F2A480280B00F16F0E4FEA4E036E3052
:102FA00076E600BFB48EFF1FA095FF1FA495FF1FFC
:102FB0009C95FF1F9895FF1FC092FF1F5A0A042A75
:102FC0005ED9142A00F2B38002F15C0149005B3241
:102FD00007EB810C57F82110DFF8DC81ACF1080C0D
:102FE0008C4500F088804A6822F00302934202D2A6
:102FF00089688C45F7D1D1F80CC07A68C4F80CC048
:10300000A160CCF80840CC6088E6631942F0010763
:1030100045F00105656030464B610B61C3F80CE07B
:10302000C3F808E05F609A50083400F0C9F8D5E6AC
:103030004A6873E608F1010818F0030F0CF1080C58
:103040007FF47FAE30E0DC68A34208BF02303FF47B
:1030500035AEB3E60B440C465A68C96854F8085FAD
:1030600042F001025A603046E9608D6000F0A8F835
:10307000B4E603F15C0E03F15B004FEA4E0307E692
:103080009A0902F1390149003832A1E7BC424A4BA2
:103090003FF400AF9C68626822F003025AE759F8D7
:1030A0000839994540F0828010F0030F00F1FF309D
:1030B000F5D17B6823EA04037B6064009C423FF601
:1030C000BDAE002C3FF4BAAE1C4240467FF435AE94
:1030D00064001C4200F10400FAD02EE6B3F5AA7F8A
:1030E00018D8E80B00F1780E4FEA4E037730CFE5A1
:1030F0004FF48051EBE60121D8F80430921001FA28
:1031000002F21A43C8F80420614677E70123CBF89E
:10311000043025E740F25452934220D8A80C00F125
:103120007D0E4FEA4E037C30B2E51032A4E6542AFD
:1031300026D81A0B02F16F0149006E3248E7BC68CD
:10314000626822F0030205E7CAF30B0000287FF44F
:10315000A8AE4244BB6842F001025A60ECE6FE238E
:103160004FF07F0E7E2093E501224FF00009C1E66B
:1031700004F10801304600F023F9D9F80010DBE62D
:10318000B2F5AA7F05D8DA0B02F17801490077324F
:103190001EE740F254518A4205D89A0C02F17D0193
:1031A00049007C3214E7FE217E2211E77B6884E728
:1031B000E808431C5B00F8E5B48EFF1F704700BFB2
:1031C000704700BF38B5074C00230546084623600A
:1031D000FFF75AFA431C00D038BD2368002BFBD000
:1031E0002B6038BDE095FF1FFFFFFFFFFFFFFFFFD4
:1031F000FFFFFFFFFFFFFFFFFFFFFFFFFFFFFFFFDF
:1032000090F800F06DE9024520F007016FF0000C26
:1032100010F0070491F820F040F049804FF00004CE
:103220006FF00700D1E9002391F840F000F10800A9
:1032300082FA4CF2A4FA8CF283FA4CF3A2FA8CF3E1
:103240004BBBD1E9022382FA4CF200F10800A4FA48
:103250008CF283FA4CF3A2FA8CF3E3B9D1E904239C
:1032600082FA4CF200F10800A4FA8CF283FA4CF3D3
:10327000A2FA8CF37BB9D1E9062301F1200182FA8D
:103280004CF200F10800A4FA8CF283FA4CF3A2FA93
:103290008CF3002BC6D0002A04BF04301A4612BAA1
:1032A000B2FA82F2FDE8024500EBD2007047D1E9A4
:1032B000002304F00305C4F100004FEAC50514F033
:1032C000040F91F840F00CFA05F562EA05021CBF04
:1032D00063EA050362464FF00004A9E7024B13B10D
:1032E000024800F005B8704700000000FD32000001
:1032F000002301461A46184600F04AB938B5074D72
:10330000074C2C1BA41005D0013C55F8043D9847F0
:10331000002CF9D1BDE8384000F0CEBA0000000022
:1033200000000000F8B5234F0C460646FFF746FFA5
:10333000BB685D6825F00305291B01F6EF7121F4D8
:103340007F6121F00F01A1F58054B4F5805F07DBA8
:1033500000213046FFF736FFBB682B44984204D06B
:103360003046FFF72DFF0020F8BD61423046FFF7E1
:1033700029FF01300DD0104BBA6819682D1B45F09C
:1033800001053046091B55601960FFF719FF012040
:10339000F8BD00213046FFF715FFBA68831A0F2BDE
:1033A000DEDD064C0449246843F00103001B536032
:1033B0000860D5E7B48EFF1FA495FF1FC092FF1FC2
:1033C000002945D02DE9F0410D468046FFF7F6FE75
:1033D00055F8047C6A4927F00103A5F10804E218B6
:1033E0008E685068B24220F0030062D0FE07506041
:1033F0000BD455F8087CE41B01F1080EA56875454F
:103400003B446FD0E768EF60BD6015186D68ED074D
:1034100042D543F001026260E350B3F5007F18D259
:10342000DB085A1C4D6851F83270A76001209B10D0
:1034300000FA03F301EBC2001D430838E0604D6061
:1034400041F83240FC604046BDE8F041FFF7B8BEAD
:1034500070475A0A042A53D89A0902F139077F00A3
:1034600002F1380501EB870051F82720444908385C
:1034700090424DD0516821F003018B4202D29268F4
:103480009042F7D1D068E060A2608460D46040468A
:10349000BDE8F041FFF794BE95683A4FBD42034442
:1034A0003FD0D068E86043F0010285606260E3507D
:1034B000B3E7FF07034407D455F8082CA41A1344B4
:1034C000A068E268C26090602F4A126843F0010071
:1034D000934260608C60B6D32C4B40461968FFF76E
:1034E00021FFB0E711184968C90744D49168D26830
:1034F000CA60034443F0010091606060E350A2E7BA
:10350000142A17D802F15C077F0002F15B05A9E7D6
:10351000AA104B68012505FA02F213434B600246DC
:10352000B1E743F001024C610C61E560A5606260A7
:10353000E35088E7542A06D81A0B02F16F077F0080
:1035400002F16E058EE7B2F5AA7F06D8DA0B02F11A
:1035500078077F0002F1770584E740F254508242F9
:1035600006D89A0C02F17D077F0002F17C0579E70D
:10357000FE277E2576E743F001026260E35062E7B2
:10358000B48EFF1FBC8EFF1FBC92FF1FA095FF1FB4
:103590002DE9F047254C2568D5F848410646884670
:1035A00092469946C4B360681F2817DC431C76B165
:1035B00004EB80050122C5F888A0D4F88811824068
:1035C0001143022EC4F88811C5F808911ED00230AC
:1035D000636044F820800020BDE8F087144B03B3FB
:1035E0004FF4C870FFF72AFB0446D0B1D5F8483134
:1035F000002780E88800C5F8484138460123C4F810
:103600008871C4F88C71002EE1D0D1E7D4F88C1108
:103610000A43C4F88C21DAE705F5A674C5F84841D9
:10362000C1E74FF0FF30BDE8F08700BFA0380000D1
:103630003D2C0000412064617461206F76657266E4
:103640006C6F7720686173206F6363757265642E99
:103650002053616D706C6520726174652069732000
:10366000746F6F2066617374210000000A0000000F
:1036700034800440400000001211FFFFFF020200EE
:1036800000001310FFFFFF020200000018000000FE
:1036900034800440800000001EFFFFFFFF02000096
:1036A00000001DFFFFFFFF020000000019000000E6
:1036B0000000000000000000890700004D07000026
:1036C000010700004907000005070000110700007E
:1036D000310700004008FE4340A004404408FE4378
:1036E00044A004400018FE4300C004403000FE43E4
:1036F000309004403400FE43349004401C18FE43D4
:103700001CC004401018FE4310C004400818FE43BB
:1037100008C004400C18FE430CC004400C10FE43CB
:103720000CB004401010FE4310B004401810FE43CB
:1037300018B004401C10FE431CB004401410FE439B
:1037400014B004400418FE4304C004400010FE43BB
:1037500000B004400008FE4300A004400408FE43FB
:1037600004A004400C08FE430CA004400808FE43DB
:1037700008A004401418FE4314C004401818FE4367
:1037800018C004400410FE4304B004400810FE4377
:1037900008B004401400FE43149004404C08FE435B
:1037A0004CA004400420FE4304D004402410FE43F7
:1037B00024B004402010FE4320B004402810FE43F3
:1037C00028B004402C10FE432CB004400020FE43DF
:1037D00000D004404808FE4348A004401000FE43C7
:1037E000109004400000000000000000BD23000015
:1037F000E123000075240000712400006D24000006
:1038000069240000652400003124000045240000E4
:103810002D240000252400001D2400001524000094
:1038200005240000F5230000F1230000912300008F
:1038300099230000A1230000A9230000C923000050
:10384000B12300000D0AFFFF00151915000100004B
:10385000E489FF1F1200000000020000108AFF1F11
:1038600043000000000300006C8AFF1F00000000FE
:1038700001030904F889FF1F000000000203090486
:10388000548AFF1F0000000003030904708AFF1F11
:103890000000000000000000000000000000000028
:1038A000888AFF1FF8B500BFF8BC08BC9E46704769
:0838B000DD32000035040000C8
:0438B800F8B500BFA0
:1038BC0038B5084B1C681C6054B1074D94FAA4F33E
:1038CC00B3FA83F355F823309847631E1C40F5D1A7
:1038DC0038BD00BFA0D00440BC89FF1F38B5084BD1
:1038EC001C681C6054B1074D94FAA4F3B3FA83F32B
:1038FC0055F823309847631E1C40F5D138BD00BFE6
:10390C00A0C004409C89FF1F38B5084B1C681C6084
:10391C0054B1074D94FAA4F3B3FA83F355F823305A
:10392C009847631E1C40F5D138BD00BFA0B00440C1
:10393C006C89FF1F38B5084B1C681C6054B1074DCF
:10394C0094FAA4F3B3FA83F355F823309847631E23
:10395C001C40F5D138BD00BFA0A004401C89FF1F3E
:10396C0038B5084B1C681C6054B1074D94FAA4F38D
:10397C00B3FA83F355F823309847631E1C40F5D1F6
:10398C0038BD00BFA0900440E488FF1F40420F00E8
:10399C002800000001000000B83600000000000004
:1039AC00E8030000000000000060064070360000D4
:1039BC0000000000000000000000000000000000FB
:1039CC0000000000000000000000000000000000EB
:1039DC0000000000000000000000000000000000DB
:1039EC0000000000000000000000000000000000CB
:1039FC0000000000000000000000000000000000BB
:103A0C0000000000B836000000000000E8030000D1
:103A1C00000000000070064090360000000000001E
:103A2C00000000000000000000000000000000008A
:103A3C00000000000000000000000000000000007A
:103A4C00000000000000000000000000000000006A
:103A5C00000000000000000000000000000000005A
:103A6C00000000000000000000000000000000004A
:103A7C00ED0B0000410D0000410D0000410D000058
:103A8C00410D0000410D0000410D0000410D0000F2
:103A9C00410D0000410D0000410D0000410D0000E2
:103AAC00410D0000410D0000410D0000410D0000D2
:103ABC00410D0000410D0000410D0000410D0000C2
:103ACC00410D0000410D0000410D0000410D0000B2
:103ADC00410D0000410D0000410D0000410D0000A2
:103AEC00410D0000410D0000410D0000410D000092
:103AFC00410D0000410D0000410D0000410D000082
:103B0C00410D0000410D0000410D0000410D000071
:103B1C00410D0000410D0000410D0000410D000061
:103B2C00410D0000410D0000410D0000410D000051
:103B3C00410D0000410D0000410D0000410D000041
:103B4C00410D0000410D0000410D0000410D000031
:103B5C00410D000001000000FFFFFFFFEC370000EB
:103B6C0000000000E8030000000000000A04000050
:103B7C00E495FF1F1201010102000040C0168304EE
:103B8C0000020102030100001803540065006500E7
:103B9C006E00730079006400750069006E006F00A0
:103BAC0009024300020100C03209040000010202B4
:103BBC000100052400100105240101010424020662
:103BCC0005240600010705820310004009040100CA
:103BDC00020A0000000705030240000007058402EA
:103BEC004000000016035500530042002000530013
:103BFC0065007200690061006C0000000403090498
:103C0C000C03000000000000000000000000000099
:103C1C00000000000000000000000000748DFF1F79
:103C2C00DC8DFF1F448EFF1F000000000000000011
:103C3C000000000000000000000000000000000078
:103C4C000000000000000000000000000000000068
:103C5C000000000000000000000000000000000058
:103C6C000000000000000000000000000000000048
:103C7C000000000000000000000000000000000038
:103C8C000000000000000000000000000000000028
:103C9C000000000000000000000000000000000018
:103CAC000000000000000000000000000000000008
:103CBC0000000000000000000000000000000000F8
:103CCC0001000000000000000E33CDAB34126DE695
:103CDC00ECDE05000B0000000000000000000000FE
:103CEC0000000000000000000000000000000000C8
:103CFC0000000000000000000000000000000000B8
:103D0C0000000000000000000000000000000000A7
:103D1C000000000000000000000000000000000097
:10404C00888AFF1F0000000000000000B48EFF1FD4
:10405C00B48EFF1FBC8EFF1FBC8EFF1FC48EFF1FB4
:10406C00C48EFF1FCC8EFF1FCC8EFF1FD48EFF1F64
:10407C00D48EFF1FDC8EFF1FDC8EFF1FE48EFF1F14
:10408C00E48EFF1FEC8EFF1FEC8EFF1FF48EFF1FC4
:10409C00F48EFF1FFC8EFF1FFC8EFF1F048FFF1F73
:1040AC00048FFF1F0C8FFF1F0C8FFF1F148FFF1F20
:1040BC00148FFF1F1C8FFF1F1C8FFF1F248FFF1FD0
:1040CC00248FFF1F2C8FFF1F2C8FFF1F348FFF1F80
:1040DC00348FFF1F3C8FFF1F3C8FFF1F448FFF1F30
:1040EC00448FFF1F4C8FFF1F4C8FFF1F548FFF1FE0
:1040FC00548FFF1F5C8FFF1F5C8FFF1F648FFF1F90
:10410C00648FFF1F6C8FFF1F6C8FFF1F748FFF1F3F
:10411C00748FFF1F7C8FFF1F7C8FFF1F848FFF1FEF
:10412C00848FFF1F8C8FFF1F8C8FFF1F948FFF1F9F
:10413C00948FFF1F9C8FFF1F9C8FFF1FA48FFF1F4F
:10414C00A48FFF1FAC8FFF1FAC8FFF1FB48FFF1FFF
:10415C00B48FFF1FBC8FFF1FBC8FFF1FC48FFF1FAF
:10416C00C48FFF1FCC8FFF1FCC8FFF1FD48FFF1F5F
:10417C00D48FFF1FDC8FFF1FDC8FFF1FE48FFF1F0F
:10418C00E48FFF1FEC8FFF1FEC8FFF1FF48FFF1FBF
:10419C00F48FFF1FFC8FFF1FFC8FFF1F0490FF1F6E
:1041AC000490FF1F0C90FF1F0C90FF1F1490FF1F1B
:1041BC001490FF1F1C90FF1F1C90FF1F2490FF1FCB
:1041CC002490FF1F2C90FF1F2C90FF1F3490FF1F7B
:1041DC003490FF1F3C90FF1F3C90FF1F4490FF1F2B
:1041EC004490FF1F4C90FF1F4C90FF1F5490FF1FDB
:1041FC005490FF1F5C90FF1F5C90FF1F6490FF1F8B
:10420C006490FF1F6C90FF1F6C90FF1F7490FF1F3A
:10421C007490FF1F7C90FF1F7C90FF1F8490FF1FEA
:10422C008490FF1F8C90FF1F8C90FF1F9490FF1F9A
:10423C009490FF1F9C90FF1F9C90FF1FA490FF1F4A
:10424C00A490FF1FAC90FF1FAC90FF1FB490FF1FFA
:10425C00B490FF1FBC90FF1FBC90FF1FC490FF1FAA
:10426C00C490FF1FCC90FF1FCC90FF1FD490FF1F5A
:10427C00D490FF1FDC90FF1FDC90FF1FE490FF1F0A
:10428C00E490FF1FEC90FF1FEC90FF1FF490FF1FBA
:10429C00F490FF1FFC90FF1FFC90FF1F0491FF1F69
:1042AC000491FF1F0C91FF1F0C91FF1F1491FF1F16
:1042BC001491FF1F1C91FF1F1C91FF1F2491FF1FC6
:1042CC002491FF1F2C91FF1F2C91FF1F3491FF1F76
:1042DC003491FF1F3C91FF1F3C91FF1F4491FF1F26
:1042EC004491FF1F4C91FF1F4C91FF1F5491FF1FD6
:1042FC005491FF1F5C91FF1F5C91FF1F6491FF1F86
:10430C006491FF1F6C91FF1F6C91FF1F7491FF1F35
:10431C007491FF1F7C91FF1F7C91FF1F8491FF1FE5
:10432C008491FF1F8C91FF1F8C91FF1F9491FF1F95
:10433C009491FF1F9C91FF1F9C91FF1FA491FF1F45
:10434C00A491FF1FAC91FF1FAC91FF1FB491FF1FF5
:10435C00B491FF1FBC91FF1FBC91FF1FC491FF1FA5
:10436C00C491FF1FCC91FF1FCC91FF1FD491FF1F55
:10437C00D491FF1FDC91FF1FDC91FF1FE491FF1F05
:10438C00E491FF1FEC91FF1FEC91FF1FF491FF1FB5
:10439C00F491FF1FFC91FF1FFC91FF1F0492FF1F64
:1043AC000492FF1F0C92FF1F0C92FF1F1492FF1F11
:1043BC001492FF1F1C92FF1F1C92FF1F2492FF1FC1
:1043CC002492FF1F2C92FF1F2C92FF1F3492FF1F71
:1043DC003492FF1F3C92FF1F3C92FF1F4492FF1F21
:1043EC004492FF1F4C92FF1F4C92FF1F5492FF1FD1
:1043FC005492FF1F5C92FF1F5C92FF1F6492FF1F81
:10440C006492FF1F6C92FF1F6C92FF1F7492FF1F30
:10441C007492FF1F7C92FF1F7C92FF1F8492FF1FE0
:10442C008492FF1F8C92FF1F8C92FF1F9492FF1F90
:10443C009492FF1F9C92FF1F9C92FF1FA492FF1F40
:10444C00A492FF1FAC92FF1FAC92FF1F0000020052
:04445C00FFFFFFFF60
:00000001FF
